{
  "contractName": "MultiSignatureWallet",
  "abi": [
    {
      "inputs": [
        {
          "internalType": "address[]",
          "name": "_owners",
          "type": "address[]"
        },
        {
          "internalType": "uint256",
          "name": "_numConfirmationsRequired",
          "type": "uint256"
        }
      ],
      "stateMutability": "nonpayable",
      "type": "constructor"
    },
    {
      "anonymous": false,
      "inputs": [
        {
          "indexed": true,
          "internalType": "address",
          "name": "owner",
          "type": "address"
        },
        {
          "indexed": true,
          "internalType": "uint256",
          "name": "txIndex",
          "type": "uint256"
        }
      ],
      "name": "ConfirmTransaction",
      "type": "event"
    },
    {
      "anonymous": false,
      "inputs": [
        {
          "indexed": true,
          "internalType": "address",
          "name": "sender",
          "type": "address"
        },
        {
          "indexed": false,
          "internalType": "uint256",
          "name": "amount",
          "type": "uint256"
        },
        {
          "indexed": false,
          "internalType": "uint256",
          "name": "balance",
          "type": "uint256"
        }
      ],
      "name": "Deposit",
      "type": "event"
    },
    {
      "anonymous": false,
      "inputs": [
        {
          "indexed": true,
          "internalType": "address",
          "name": "owner",
          "type": "address"
        },
        {
          "indexed": true,
          "internalType": "uint256",
          "name": "txIndex",
          "type": "uint256"
        }
      ],
      "name": "ExecuteTransaction",
      "type": "event"
    },
    {
      "anonymous": false,
      "inputs": [
        {
          "indexed": true,
          "internalType": "address",
          "name": "owner",
          "type": "address"
        },
        {
          "indexed": true,
          "internalType": "uint256",
          "name": "txIndex",
          "type": "uint256"
        }
      ],
      "name": "RevokeConfirmation",
      "type": "event"
    },
    {
      "anonymous": false,
      "inputs": [
        {
          "indexed": true,
          "internalType": "address",
          "name": "owner",
          "type": "address"
        },
        {
          "indexed": true,
          "internalType": "uint256",
          "name": "txIndex",
          "type": "uint256"
        },
        {
          "indexed": true,
          "internalType": "address",
          "name": "to",
          "type": "address"
        },
        {
          "indexed": false,
          "internalType": "uint256",
          "name": "value",
          "type": "uint256"
        },
        {
          "indexed": false,
          "internalType": "bytes",
          "name": "data",
          "type": "bytes"
        }
      ],
      "name": "SubmitTransaction",
      "type": "event"
    },
    {
      "stateMutability": "payable",
      "type": "fallback",
      "payable": true
    },
    {
      "inputs": [
        {
          "internalType": "address",
          "name": "",
          "type": "address"
        }
      ],
      "name": "isOwner",
      "outputs": [
        {
          "internalType": "bool",
          "name": "",
          "type": "bool"
        }
      ],
      "stateMutability": "view",
      "type": "function",
      "constant": true
    },
    {
      "inputs": [],
      "name": "numberConfirmationsRequired",
      "outputs": [
        {
          "internalType": "uint256",
          "name": "",
          "type": "uint256"
        }
      ],
      "stateMutability": "view",
      "type": "function",
      "constant": true
    },
    {
      "inputs": [
        {
          "internalType": "uint256",
          "name": "",
          "type": "uint256"
        }
      ],
      "name": "owners",
      "outputs": [
        {
          "internalType": "address",
          "name": "",
          "type": "address"
        }
      ],
      "stateMutability": "view",
      "type": "function",
      "constant": true
    },
    {
      "inputs": [
        {
          "internalType": "uint256",
          "name": "",
          "type": "uint256"
        }
      ],
      "name": "transactions",
      "outputs": [
        {
          "internalType": "address",
          "name": "to",
          "type": "address"
        },
        {
          "internalType": "uint256",
          "name": "value",
          "type": "uint256"
        },
        {
          "internalType": "bytes",
          "name": "data",
          "type": "bytes"
        },
        {
          "internalType": "bool",
          "name": "executed",
          "type": "bool"
        },
        {
          "internalType": "uint256",
          "name": "numConfirmations",
          "type": "uint256"
        }
      ],
      "stateMutability": "view",
      "type": "function",
      "constant": true
    },
    {
      "stateMutability": "payable",
      "type": "receive",
      "payable": true
    },
    {
      "inputs": [],
      "name": "deposit",
      "outputs": [],
      "stateMutability": "payable",
      "type": "function",
      "payable": true
    },
    {
      "inputs": [
        {
          "internalType": "uint256",
          "name": "_txIndex",
          "type": "uint256"
        }
      ],
      "name": "getTransaction",
      "outputs": [
        {
          "internalType": "address",
          "name": "to",
          "type": "address"
        },
        {
          "internalType": "uint256",
          "name": "value",
          "type": "uint256"
        },
        {
          "internalType": "bytes",
          "name": "data",
          "type": "bytes"
        },
        {
          "internalType": "bool",
          "name": "executed",
          "type": "bool"
        },
        {
          "internalType": "uint256",
          "name": "numConfirmations",
          "type": "uint256"
        }
      ],
      "stateMutability": "view",
      "type": "function",
      "constant": true
    },
    {
      "inputs": [
        {
          "internalType": "address",
          "name": "_to",
          "type": "address"
        },
        {
          "internalType": "uint256",
          "name": "_value",
          "type": "uint256"
        },
        {
          "internalType": "bytes",
          "name": "_data",
          "type": "bytes"
        }
      ],
      "name": "submitTransaction",
      "outputs": [],
      "stateMutability": "nonpayable",
      "type": "function"
    },
    {
      "inputs": [
        {
          "internalType": "uint256",
          "name": "_txIndex",
          "type": "uint256"
        }
      ],
      "name": "confirmTransaction",
      "outputs": [],
      "stateMutability": "nonpayable",
      "type": "function"
    },
    {
      "inputs": [
        {
          "internalType": "uint256",
          "name": "_txIndex",
          "type": "uint256"
        }
      ],
      "name": "executeTransaction",
      "outputs": [],
      "stateMutability": "nonpayable",
      "type": "function"
    }
  ],
  "bytecode": "0x60806040523480156200001157600080fd5b5060405162001ee838038062001ee8833981810160405281019062000037919062000506565b60008251116200007e576040517f08c379a00000000000000000000000000000000000000000000000000000000081526004016200007590620005cd565b60405180910390fd5b60008111801562000090575081518111155b620000d2576040517f08c379a0000000000000000000000000000000000000000000000000000000008152600401620000c99062000665565b60405180910390fd5b60005b8251811015620002d4576000838281518110620000f757620000f662000687565b5b60200260200101519050600073ffffffffffffffffffffffffffffffffffffffff168173ffffffffffffffffffffffffffffffffffffffff160362000173576040517f08c379a00000000000000000000000000000000000000000000000000000000081526004016200016a9062000706565b60405180910390fd5b600160008273ffffffffffffffffffffffffffffffffffffffff1673ffffffffffffffffffffffffffffffffffffffff16815260200190815260200160002060009054906101000a900460ff161562000203576040517f08c379a0000000000000000000000000000000000000000000000000000000008152600401620001fa9062000778565b60405180910390fd5b60018060008373ffffffffffffffffffffffffffffffffffffffff1673ffffffffffffffffffffffffffffffffffffffff16815260200190815260200160002060006101000a81548160ff0219169083151502179055506000819080600181540180825580915050600190039060005260206000200160009091909190916101000a81548173ffffffffffffffffffffffffffffffffffffffff021916908373ffffffffffffffffffffffffffffffffffffffff160217905550508080620002cb90620007c9565b915050620000d5565b50505062000816565b6000604051905090565b600080fd5b600080fd5b600080fd5b6000601f19601f8301169050919050565b7f4e487b7100000000000000000000000000000000000000000000000000000000600052604160045260246000fd5b6200034182620002f6565b810181811067ffffffffffffffff8211171562000363576200036262000307565b5b80604052505050565b600062000378620002dd565b905062000386828262000336565b919050565b600067ffffffffffffffff821115620003a957620003a862000307565b5b602082029050602081019050919050565b600080fd5b600073ffffffffffffffffffffffffffffffffffffffff82169050919050565b6000620003ec82620003bf565b9050919050565b620003fe81620003df565b81146200040a57600080fd5b50565b6000815190506200041e81620003f3565b92915050565b60006200043b62000435846200038b565b6200036c565b90508083825260208201905060208402830185811115620004615762000460620003ba565b5b835b818110156200048e57806200047988826200040d565b84526020840193505060208101905062000463565b5050509392505050565b600082601f830112620004b057620004af620002f1565b5b8151620004c284826020860162000424565b91505092915050565b6000819050919050565b620004e081620004cb565b8114620004ec57600080fd5b50565b6000815190506200050081620004d5565b92915050565b6000806040838503121562000520576200051f620002e7565b5b600083015167ffffffffffffffff811115620005415762000540620002ec565b5b6200054f8582860162000498565b92505060206200056285828601620004ef565b9150509250929050565b600082825260208201905092915050565b7f4f776e6572732052657175697265640000000000000000000000000000000000600082015250565b6000620005b5600f836200056c565b9150620005c2826200057d565b602082019050919050565b60006020820190508181036000830152620005e881620005a6565b9050919050565b7f696e76616c6964206e756d626572206f6620726571756972656420636f6e666960008201527f726d6174696f6e73000000000000000000000000000000000000000000000000602082015250565b60006200064d6028836200056c565b91506200065a82620005ef565b604082019050919050565b6000602082019050818103600083015262000680816200063e565b9050919050565b7f4e487b7100000000000000000000000000000000000000000000000000000000600052603260045260246000fd5b7f696e76616c6964206f776e657200000000000000000000000000000000000000600082015250565b6000620006ee600d836200056c565b9150620006fb82620006b6565b602082019050919050565b600060208201905081810360008301526200072181620006df565b9050919050565b7f6f776e6572206e6f7420756e6971756500000000000000000000000000000000600082015250565b6000620007606010836200056c565b91506200076d8262000728565b602082019050919050565b60006020820190508181036000830152620007938162000751565b9050919050565b7f4e487b7100000000000000000000000000000000000000000000000000000000600052601160045260246000fd5b6000620007d682620004cb565b91507fffffffffffffffffffffffffffffffffffffffffffffffffffffffffffffffff82036200080b576200080a6200079a565b5b600182019050919050565b6116c280620008266000396000f3fe60806040526004361061008a5760003560e01c8063c01a8c8411610059578063c01a8c841461022f578063c642747414610258578063d0e30db014610281578063ee22610b1461028b578063efed772d146102b4576100e1565b8063025e7c27146101335780632f54bf6e1461017057806333ea3dc8146101ad5780639ace38c2146101ee576100e1565b366100e1573373ffffffffffffffffffffffffffffffffffffffff167f90890809c654f11d6e72a28fa60149770a0d11ec6c92319d6ceb2bb0a4ea1a1534476040516100d7929190610dc6565b60405180910390a2005b3373ffffffffffffffffffffffffffffffffffffffff167f90890809c654f11d6e72a28fa60149770a0d11ec6c92319d6ceb2bb0a4ea1a153447604051610129929190610dc6565b60405180910390a2005b34801561013f57600080fd5b5061015a60048036038101906101559190610e2f565b6102df565b6040516101679190610e9d565b60405180910390f35b34801561017c57600080fd5b5061019760048036038101906101929190610ee4565b61031e565b6040516101a49190610f2c565b60405180910390f35b3480156101b957600080fd5b506101d460048036038101906101cf9190610e2f565b61033e565b6040516101e5959493929190610fe0565b60405180910390f35b3480156101fa57600080fd5b5061021560048036038101906102109190610e2f565b610451565b604051610226959493929190610fe0565b60405180910390f35b34801561023b57600080fd5b5061025660048036038101906102519190610e2f565b61054c565b005b34801561026457600080fd5b5061027f600480360381019061027a919061116f565b61082c565b005b6102896109ba565b005b34801561029757600080fd5b506102b260048036038101906102ad9190610e2f565b610a0c565b005b3480156102c057600080fd5b506102c9610d04565b6040516102d691906111de565b60405180910390f35b600081815481106102ef57600080fd5b906000526020600020016000915054906101000a900473ffffffffffffffffffffffffffffffffffffffff1681565b60016020528060005260406000206000915054906101000a900460ff1681565b600080606060008060006003878154811061035c5761035b6111f9565b5b906000526020600020906006020190508060000160009054906101000a900473ffffffffffffffffffffffffffffffffffffffff168160010154826002018360030160009054906101000a900460ff1684600501548280546103bd90611257565b80601f01602080910402602001604051908101604052809291908181526020018280546103e990611257565b80156104365780601f1061040b57610100808354040283529160200191610436565b820191906000526020600020905b81548152906001019060200180831161041957829003601f168201915b50505050509250955095509550955095505091939590929450565b6003818154811061046157600080fd5b90600052602060002090600602016000915090508060000160009054906101000a900473ffffffffffffffffffffffffffffffffffffffff16908060010154908060020180546104b090611257565b80601f01602080910402602001604051908101604052809291908181526020018280546104dc90611257565b80156105295780601f106104fe57610100808354040283529160200191610529565b820191906000526020600020905b81548152906001019060200180831161050c57829003601f168201915b5050505050908060030160009054906101000a900460ff16908060050154905085565b600160003373ffffffffffffffffffffffffffffffffffffffff1673ffffffffffffffffffffffffffffffffffffffff16815260200190815260200160002060009054906101000a900460ff166105d8576040517f08c379a00000000000000000000000000000000000000000000000000000000081526004016105cf906112e5565b60405180910390fd5b806003805490508110610620576040517f08c379a000000000000000000000000000000000000000000000000000000000815260040161061790611351565b60405180910390fd5b8160038181548110610635576106346111f9565b5b906000526020600020906006020160040160003373ffffffffffffffffffffffffffffffffffffffff1673ffffffffffffffffffffffffffffffffffffffff16815260200190815260200160002060009054906101000a900460ff16156106d1576040517f08c379a00000000000000000000000000000000000000000000000000000000081526004016106c8906113bd565b60405180910390fd5b82600381815481106106e6576106e56111f9565b5b906000526020600020906006020160030160009054906101000a900460ff1615610745576040517f08c379a000000000000000000000000000000000000000000000000000000000815260040161073c90611429565b60405180910390fd5b60006003858154811061075b5761075a6111f9565b5b9060005260206000209060060201905060018160040160003373ffffffffffffffffffffffffffffffffffffffff1673ffffffffffffffffffffffffffffffffffffffff16815260200190815260200160002060006101000a81548160ff02191690831515021790555060018160050160008282546107da9190611478565b92505081905550843373ffffffffffffffffffffffffffffffffffffffff167f5cbe105e36805f7820e291f799d5794ff948af2a5f664e580382defb6339004160405160405180910390a35050505050565b600160003373ffffffffffffffffffffffffffffffffffffffff1673ffffffffffffffffffffffffffffffffffffffff16815260200190815260200160002060009054906101000a900460ff166108b8576040517f08c379a00000000000000000000000000000000000000000000000000000000081526004016108af906112e5565b60405180910390fd5b60006003805490509050600060036001816001815401808255809150500390600052602060002090600602019050848160000160006101000a81548173ffffffffffffffffffffffffffffffffffffffff021916908373ffffffffffffffffffffffffffffffffffffffff1602179055508381600101819055508281600201908051906020019061094a929190610d0a565b508473ffffffffffffffffffffffffffffffffffffffff16823373ffffffffffffffffffffffffffffffffffffffff167fd5a05bf70715ad82a09a756320284a1b54c9ff74cd0f8cce6219e79b563fe59d87876040516109ab9291906114ce565b60405180910390a45050505050565b3373ffffffffffffffffffffffffffffffffffffffff167f90890809c654f11d6e72a28fa60149770a0d11ec6c92319d6ceb2bb0a4ea1a153447604051610a02929190610dc6565b60405180910390a2565b600160003373ffffffffffffffffffffffffffffffffffffffff1673ffffffffffffffffffffffffffffffffffffffff16815260200190815260200160002060009054906101000a900460ff16610a98576040517f08c379a0000000000000000000000000000000000000000000000000000000008152600401610a8f906112e5565b60405180910390fd5b806003805490508110610ae0576040517f08c379a0000000000000000000000000000000000000000000000000000000008152600401610ad790611351565b60405180910390fd5b8160038181548110610af557610af46111f9565b5b906000526020600020906006020160030160009054906101000a900460ff1615610b54576040517f08c379a0000000000000000000000000000000000000000000000000000000008152600401610b4b90611429565b60405180910390fd5b600060038481548110610b6a57610b696111f9565b5b9060005260206000209060060201905060025481600501541015610bc3576040517f08c379a0000000000000000000000000000000000000000000000000000000008152600401610bba9061154a565b60405180910390fd5b60018160030160006101000a81548160ff02191690831515021790555060008160000160009054906101000a900473ffffffffffffffffffffffffffffffffffffffff1673ffffffffffffffffffffffffffffffffffffffff16826001015483600201604051610c339190611609565b60006040518083038185875af1925050503d8060008114610c70576040519150601f19603f3d011682016040523d82523d6000602084013e610c75565b606091505b5050905080610cb9576040517f08c379a0000000000000000000000000000000000000000000000000000000008152600401610cb09061166c565b60405180910390fd5b843373ffffffffffffffffffffffffffffffffffffffff167f5445f318f4f5fcfb66592e68e0cc5822aa15664039bd5f0ffde24c5a8142b1ac60405160405180910390a35050505050565b60025481565b828054610d1690611257565b90600052602060002090601f016020900481019282610d385760008555610d7f565b82601f10610d5157805160ff1916838001178555610d7f565b82800160010185558215610d7f579182015b82811115610d7e578251825591602001919060010190610d63565b5b509050610d8c9190610d90565b5090565b5b80821115610da9576000816000905550600101610d91565b5090565b6000819050919050565b610dc081610dad565b82525050565b6000604082019050610ddb6000830185610db7565b610de86020830184610db7565b9392505050565b6000604051905090565b600080fd5b600080fd5b610e0c81610dad565b8114610e1757600080fd5b50565b600081359050610e2981610e03565b92915050565b600060208284031215610e4557610e44610df9565b5b6000610e5384828501610e1a565b91505092915050565b600073ffffffffffffffffffffffffffffffffffffffff82169050919050565b6000610e8782610e5c565b9050919050565b610e9781610e7c565b82525050565b6000602082019050610eb26000830184610e8e565b92915050565b610ec181610e7c565b8114610ecc57600080fd5b50565b600081359050610ede81610eb8565b92915050565b600060208284031215610efa57610ef9610df9565b5b6000610f0884828501610ecf565b91505092915050565b60008115159050919050565b610f2681610f11565b82525050565b6000602082019050610f416000830184610f1d565b92915050565b600081519050919050565b600082825260208201905092915050565b60005b83811015610f81578082015181840152602081019050610f66565b83811115610f90576000848401525b50505050565b6000601f19601f8301169050919050565b6000610fb282610f47565b610fbc8185610f52565b9350610fcc818560208601610f63565b610fd581610f96565b840191505092915050565b600060a082019050610ff56000830188610e8e565b6110026020830187610db7565b81810360408301526110148186610fa7565b90506110236060830185610f1d565b6110306080830184610db7565b9695505050505050565b600080fd5b600080fd5b7f4e487b7100000000000000000000000000000000000000000000000000000000600052604160045260246000fd5b61107c82610f96565b810181811067ffffffffffffffff8211171561109b5761109a611044565b5b80604052505050565b60006110ae610def565b90506110ba8282611073565b919050565b600067ffffffffffffffff8211156110da576110d9611044565b5b6110e382610f96565b9050602081019050919050565b82818337600083830152505050565b600061111261110d846110bf565b6110a4565b90508281526020810184848401111561112e5761112d61103f565b5b6111398482856110f0565b509392505050565b600082601f8301126111565761115561103a565b5b81356111668482602086016110ff565b91505092915050565b60008060006060848603121561118857611187610df9565b5b600061119686828701610ecf565b93505060206111a786828701610e1a565b925050604084013567ffffffffffffffff8111156111c8576111c7610dfe565b5b6111d486828701611141565b9150509250925092565b60006020820190506111f36000830184610db7565b92915050565b7f4e487b7100000000000000000000000000000000000000000000000000000000600052603260045260246000fd5b7f4e487b7100000000000000000000000000000000000000000000000000000000600052602260045260246000fd5b6000600282049050600182168061126f57607f821691505b60208210810361128257611281611228565b5b50919050565b600082825260208201905092915050565b7f4e6f7420612076616c6964206f776e6572000000000000000000000000000000600082015250565b60006112cf601183611288565b91506112da82611299565b602082019050919050565b600060208201905081810360008301526112fe816112c2565b9050919050565b7f747820646f6573206e6f74206578697473000000000000000000000000000000600082015250565b600061133b601183611288565b915061134682611305565b602082019050919050565b6000602082019050818103600083015261136a8161132e565b9050919050565b7f747820616c726561647920636f6e6669726d6564000000000000000000000000600082015250565b60006113a7601483611288565b91506113b282611371565b602082019050919050565b600060208201905081810360008301526113d68161139a565b9050919050565b7f747820616c726561647920657865637574656400000000000000000000000000600082015250565b6000611413601383611288565b915061141e826113dd565b602082019050919050565b6000602082019050818103600083015261144281611406565b9050919050565b7f4e487b7100000000000000000000000000000000000000000000000000000000600052601160045260246000fd5b600061148382610dad565b915061148e83610dad565b9250827fffffffffffffffffffffffffffffffffffffffffffffffffffffffffffffffff038211156114c3576114c2611449565b5b828201905092915050565b60006040820190506114e36000830185610db7565b81810360208301526114f58184610fa7565b90509392505050565b7f63616e6e6f742065786563757465207478000000000000000000000000000000600082015250565b6000611534601183611288565b915061153f826114fe565b602082019050919050565b6000602082019050818103600083015261156381611527565b9050919050565b600081905092915050565b60008190508160005260206000209050919050565b6000815461159781611257565b6115a1818661156a565b945060018216600081146115bc57600181146115cd57611600565b60ff19831686528186019350611600565b6115d685611575565b60005b838110156115f8578154818901526001820191506020810190506115d9565b838801955050505b50505092915050565b6000611615828461158a565b915081905092915050565b7f7478206661696c65640000000000000000000000000000000000000000000000600082015250565b6000611656600983611288565b915061166182611620565b602082019050919050565b6000602082019050818103600083015261168581611649565b905091905056fea26469706673582212205f2394ffca7dcf32701c0684abd28ceb9fda8705ef65c0378ffe8cdfad5858e564736f6c634300080d0033",
  "immutableReferences": {},
  "source": "// SPDX-License-Identifier: UNLICENSED\npragma solidity ^0.8.0;\n\ncontract MultiSignatureWallet {\n\n  event Deposit(address indexed sender, uint amount, uint balance);\n  event ConfirmTransaction(address indexed owner, uint indexed txIndex);\n  event RevokeConfirmation(address indexed owner, uint indexed txIndex);\n  event ExecuteTransaction(address indexed owner, uint indexed txIndex);\n    event SubmitTransaction(\n    address indexed owner,\n    uint indexed txIndex,\n    address indexed to,\n    uint value,\n    bytes data\n  );\n\n  address[] public owners;\n  mapping(address => bool) public isOwner;\n  uint public numberConfirmationsRequired;\n\n  struct Transaction {\n    address to;\n    uint value;\n    bytes data;\n    bool executed;\n    mapping(address => bool) isConfirmed;\n    uint numConfirmations;\n  }\n\n  Transaction[] public transactions;\n\n  constructor(address[] memory _owners, uint _numConfirmationsRequired) public {\n    require(_owners.length > 0, \"Owners Required\");\n    require(_numConfirmationsRequired > 0 && _numConfirmationsRequired <= _owners.length, \"invalid number of required confirmations\");\n\n    for (uint i = 0; i < _owners.length; i++) {\n      address owner = _owners[i];\n\n      require(owner != address(0), \"invalid owner\");\n      require(!isOwner[owner], \"owner not unique\");\n\n      isOwner[owner] = true;\n      owners.push(owner);\n\n    }\n  }\n\n  fallback() external payable {\n    emit Deposit(msg.sender, msg.value, address(this).balance);\n  }\n\n  receive() external payable {\n    emit Deposit(msg.sender, msg.value, address(this).balance);\n  }\n\n  // helper function to easily deposit in Remix IDE\n  function deposit() payable external {\n    emit Deposit(msg.sender, msg.value, address(this).balance);\n  }\n\n  modifier onlyOwner() {\n    require(isOwner[msg.sender], \"Not a valid owner\");\n    _;\n  }\n\n  modifier txExists(uint _txIndex) {\n    require(_txIndex < transactions.length, \"tx does not exits\");\n    _;\n  }\n\n  modifier notExecuted(uint _txIndex) {\n    require(!transactions[_txIndex].executed, \"tx already executed\");\n    _;\n  }\n\n  modifier notConfirmed(uint _txIndex) {\n    require(!transactions[_txIndex].isConfirmed[msg.sender], \"tx already confirmed\");\n    _;\n  }\n\n  function getTransaction(uint _txIndex) public view returns (address to, uint value, bytes memory data, bool executed, uint numConfirmations) {\n    Transaction storage transaction = transactions[_txIndex];\n    return (\n      transaction.to,\n      transaction.value,\n      transaction.data,\n      transaction.executed,\n      transaction.numConfirmations\n    );\n  }\n\n  function submitTransaction(address _to, uint _value, bytes memory _data) public onlyOwner {\n    uint txIndex = transactions.length;\n\n    Transaction storage newTx = transactions.push();\n    newTx.to = _to;\n    newTx.value = _value;\n    newTx.data = _data;\n\n    emit SubmitTransaction(msg.sender, txIndex, _to, _value, _data);\n  }\n\n  function confirmTransaction(uint _txIndex) public onlyOwner txExists(_txIndex) notConfirmed(_txIndex) notExecuted(_txIndex) {\n    Transaction storage transaction = transactions[_txIndex];\n\n    transaction.isConfirmed[msg.sender] = true;\n    transaction.numConfirmations += 1;\n\n    emit ConfirmTransaction(msg.sender, _txIndex);\n\n  }\n\n  function executeTransaction(uint _txIndex) public onlyOwner txExists(_txIndex) notExecuted(_txIndex) {\n\n    Transaction storage transaction = transactions[_txIndex];\n\n    require(transaction.numConfirmations >= numberConfirmationsRequired, \"cannot execute tx\");\n    transaction.executed = true;\n\n\n    (bool success, ) = transaction.to.call{value: transaction.value}(transaction.data);\n    require(success, \"tx failed\");\n\n    emit ExecuteTransaction(msg.sender, _txIndex);\n\n  }\n\n  // function revokeConfirmation() {}\n}\n",
  "sourcePath": "/Users/mattzamora/Desktop/Desktop/Code/projects/ethereum/multi-sig/contracts/MultiSigWallet.sol",
  "compiler": {
    "name": "solc",
    "version": "0.8.13+commit.abaa5c0e.Emscripten.clang"
  },
  "schemaVersion": "3.4.6",
  "updatedAt": "2022-04-12T01:46:13.064Z",
  "networkType": "ethereum",
  "devdoc": {
    "kind": "dev",
    "methods": {},
    "version": 1
  },
  "userdoc": {
    "kind": "user",
    "methods": {},
    "version": 1
  }
}