{
  "contractName": "MultiSignatureWallet",
  "abi": [
    {
      "inputs": [
        {
          "internalType": "address[]",
          "name": "_owners",
          "type": "address[]"
        },
        {
          "internalType": "uint256",
          "name": "_numConfirmationsRequired",
          "type": "uint256"
        }
      ],
      "stateMutability": "nonpayable",
      "type": "constructor"
    },
    {
      "anonymous": false,
      "inputs": [
        {
          "indexed": true,
          "internalType": "address",
          "name": "owner",
          "type": "address"
        },
        {
          "indexed": true,
          "internalType": "uint256",
          "name": "txIndex",
          "type": "uint256"
        }
      ],
      "name": "ConfirmTransaction",
      "type": "event"
    },
    {
      "anonymous": false,
      "inputs": [
        {
          "indexed": true,
          "internalType": "address",
          "name": "sender",
          "type": "address"
        },
        {
          "indexed": false,
          "internalType": "uint256",
          "name": "amount",
          "type": "uint256"
        },
        {
          "indexed": false,
          "internalType": "uint256",
          "name": "balance",
          "type": "uint256"
        }
      ],
      "name": "Deposit",
      "type": "event"
    },
    {
      "anonymous": false,
      "inputs": [
        {
          "indexed": true,
          "internalType": "address",
          "name": "owner",
          "type": "address"
        },
        {
          "indexed": true,
          "internalType": "uint256",
          "name": "txIndex",
          "type": "uint256"
        }
      ],
      "name": "ExecuteTransaction",
      "type": "event"
    },
    {
      "anonymous": false,
      "inputs": [
        {
          "indexed": true,
          "internalType": "address",
          "name": "owner",
          "type": "address"
        },
        {
          "indexed": true,
          "internalType": "uint256",
          "name": "txIndex",
          "type": "uint256"
        }
      ],
      "name": "RevokeConfirmation",
      "type": "event"
    },
    {
      "anonymous": false,
      "inputs": [
        {
          "indexed": true,
          "internalType": "address",
          "name": "owner",
          "type": "address"
        },
        {
          "indexed": true,
          "internalType": "uint256",
          "name": "txIndex",
          "type": "uint256"
        },
        {
          "indexed": true,
          "internalType": "address",
          "name": "to",
          "type": "address"
        },
        {
          "indexed": false,
          "internalType": "uint256",
          "name": "value",
          "type": "uint256"
        },
        {
          "indexed": false,
          "internalType": "bytes",
          "name": "data",
          "type": "bytes"
        }
      ],
      "name": "SubmitTransaction",
      "type": "event"
    },
    {
      "stateMutability": "payable",
      "type": "fallback"
    },
    {
      "inputs": [
        {
          "internalType": "address",
          "name": "",
          "type": "address"
        }
      ],
      "name": "isOwner",
      "outputs": [
        {
          "internalType": "bool",
          "name": "",
          "type": "bool"
        }
      ],
      "stateMutability": "view",
      "type": "function"
    },
    {
      "inputs": [],
      "name": "numberConfirmationsRequired",
      "outputs": [
        {
          "internalType": "uint256",
          "name": "",
          "type": "uint256"
        }
      ],
      "stateMutability": "view",
      "type": "function"
    },
    {
      "inputs": [
        {
          "internalType": "uint256",
          "name": "",
          "type": "uint256"
        }
      ],
      "name": "owners",
      "outputs": [
        {
          "internalType": "address",
          "name": "",
          "type": "address"
        }
      ],
      "stateMutability": "view",
      "type": "function"
    },
    {
      "inputs": [
        {
          "internalType": "uint256",
          "name": "",
          "type": "uint256"
        }
      ],
      "name": "transactions",
      "outputs": [
        {
          "internalType": "address",
          "name": "to",
          "type": "address"
        },
        {
          "internalType": "uint256",
          "name": "value",
          "type": "uint256"
        },
        {
          "internalType": "bytes",
          "name": "data",
          "type": "bytes"
        },
        {
          "internalType": "bool",
          "name": "executed",
          "type": "bool"
        },
        {
          "internalType": "uint256",
          "name": "numConfirmations",
          "type": "uint256"
        }
      ],
      "stateMutability": "view",
      "type": "function"
    },
    {
      "stateMutability": "payable",
      "type": "receive"
    },
    {
      "inputs": [],
      "name": "deposit",
      "outputs": [],
      "stateMutability": "payable",
      "type": "function"
    },
    {
      "inputs": [
        {
          "internalType": "address",
          "name": "_to",
          "type": "address"
        },
        {
          "internalType": "uint256",
          "name": "_value",
          "type": "uint256"
        },
        {
          "internalType": "bytes",
          "name": "_data",
          "type": "bytes"
        }
      ],
      "name": "submitTransaction",
      "outputs": [],
      "stateMutability": "nonpayable",
      "type": "function"
    },
    {
      "inputs": [
        {
          "internalType": "uint256",
          "name": "_txIndex",
          "type": "uint256"
        }
      ],
      "name": "confirmTransaction",
      "outputs": [],
      "stateMutability": "nonpayable",
      "type": "function"
    },
    {
      "inputs": [
        {
          "internalType": "uint256",
          "name": "_txIndex",
          "type": "uint256"
        }
      ],
      "name": "executeTransaction",
      "outputs": [],
      "stateMutability": "nonpayable",
      "type": "function"
    }
  ],
  "bytecode": "0x60806040523480156200001157600080fd5b5060405162001d8938038062001d89833981810160405281019062000037919062000506565b60008251116200007e576040517f08c379a00000000000000000000000000000000000000000000000000000000081526004016200007590620005cd565b60405180910390fd5b60008111801562000090575081518111155b620000d2576040517f08c379a0000000000000000000000000000000000000000000000000000000008152600401620000c99062000665565b60405180910390fd5b60005b8251811015620002d4576000838281518110620000f757620000f662000687565b5b60200260200101519050600073ffffffffffffffffffffffffffffffffffffffff168173ffffffffffffffffffffffffffffffffffffffff160362000173576040517f08c379a00000000000000000000000000000000000000000000000000000000081526004016200016a9062000706565b60405180910390fd5b600160008273ffffffffffffffffffffffffffffffffffffffff1673ffffffffffffffffffffffffffffffffffffffff16815260200190815260200160002060009054906101000a900460ff161562000203576040517f08c379a0000000000000000000000000000000000000000000000000000000008152600401620001fa9062000778565b60405180910390fd5b60018060008373ffffffffffffffffffffffffffffffffffffffff1673ffffffffffffffffffffffffffffffffffffffff16815260200190815260200160002060006101000a81548160ff0219169083151502179055506000819080600181540180825580915050600190039060005260206000200160009091909190916101000a81548173ffffffffffffffffffffffffffffffffffffffff021916908373ffffffffffffffffffffffffffffffffffffffff160217905550508080620002cb90620007c9565b915050620000d5565b50505062000816565b6000604051905090565b600080fd5b600080fd5b600080fd5b6000601f19601f8301169050919050565b7f4e487b7100000000000000000000000000000000000000000000000000000000600052604160045260246000fd5b6200034182620002f6565b810181811067ffffffffffffffff8211171562000363576200036262000307565b5b80604052505050565b600062000378620002dd565b905062000386828262000336565b919050565b600067ffffffffffffffff821115620003a957620003a862000307565b5b602082029050602081019050919050565b600080fd5b600073ffffffffffffffffffffffffffffffffffffffff82169050919050565b6000620003ec82620003bf565b9050919050565b620003fe81620003df565b81146200040a57600080fd5b50565b6000815190506200041e81620003f3565b92915050565b60006200043b62000435846200038b565b6200036c565b90508083825260208201905060208402830185811115620004615762000460620003ba565b5b835b818110156200048e57806200047988826200040d565b84526020840193505060208101905062000463565b5050509392505050565b600082601f830112620004b057620004af620002f1565b5b8151620004c284826020860162000424565b91505092915050565b6000819050919050565b620004e081620004cb565b8114620004ec57600080fd5b50565b6000815190506200050081620004d5565b92915050565b6000806040838503121562000520576200051f620002e7565b5b600083015167ffffffffffffffff811115620005415762000540620002ec565b5b6200054f8582860162000498565b92505060206200056285828601620004ef565b9150509250929050565b600082825260208201905092915050565b7f4f776e6572732052657175697265640000000000000000000000000000000000600082015250565b6000620005b5600f836200056c565b9150620005c2826200057d565b602082019050919050565b60006020820190508181036000830152620005e881620005a6565b9050919050565b7f696e76616c6964206e756d626572206f6620726571756972656420636f6e666960008201527f726d6174696f6e73000000000000000000000000000000000000000000000000602082015250565b60006200064d6028836200056c565b91506200065a82620005ef565b604082019050919050565b6000602082019050818103600083015262000680816200063e565b9050919050565b7f4e487b7100000000000000000000000000000000000000000000000000000000600052603260045260246000fd5b7f696e76616c6964206f776e657200000000000000000000000000000000000000600082015250565b6000620006ee600d836200056c565b9150620006fb82620006b6565b602082019050919050565b600060208201905081810360008301526200072181620006df565b9050919050565b7f6f776e6572206e6f7420756e6971756500000000000000000000000000000000600082015250565b6000620007606010836200056c565b91506200076d8262000728565b602082019050919050565b60006020820190508181036000830152620007938162000751565b9050919050565b7f4e487b7100000000000000000000000000000000000000000000000000000000600052601160045260246000fd5b6000620007d682620004cb565b91507fffffffffffffffffffffffffffffffffffffffffffffffffffffffffffffffff82036200080b576200080a6200079a565b5b600182019050919050565b61156380620008266000396000f3fe60806040526004361061007f5760003560e01c8063c64274741161004e578063c64274741461020c578063d0e30db014610235578063ee22610b1461023f578063efed772d14610268576100d6565b8063025e7c27146101285780632f54bf6e146101655780639ace38c2146101a2578063c01a8c84146101e3576100d6565b366100d6573373ffffffffffffffffffffffffffffffffffffffff167f90890809c654f11d6e72a28fa60149770a0d11ec6c92319d6ceb2bb0a4ea1a1534476040516100cc929190610c67565b60405180910390a2005b3373ffffffffffffffffffffffffffffffffffffffff167f90890809c654f11d6e72a28fa60149770a0d11ec6c92319d6ceb2bb0a4ea1a15344760405161011e929190610c67565b60405180910390a2005b34801561013457600080fd5b5061014f600480360381019061014a9190610cd0565b610293565b60405161015c9190610d3e565b60405180910390f35b34801561017157600080fd5b5061018c60048036038101906101879190610d85565b6102d2565b6040516101999190610dcd565b60405180910390f35b3480156101ae57600080fd5b506101c960048036038101906101c49190610cd0565b6102f2565b6040516101da959493929190610e81565b60405180910390f35b3480156101ef57600080fd5b5061020a60048036038101906102059190610cd0565b6103ed565b005b34801561021857600080fd5b50610233600480360381019061022e9190611010565b6106cd565b005b61023d61085b565b005b34801561024b57600080fd5b5061026660048036038101906102619190610cd0565b6108ad565b005b34801561027457600080fd5b5061027d610ba5565b60405161028a919061107f565b60405180910390f35b600081815481106102a357600080fd5b906000526020600020016000915054906101000a900473ffffffffffffffffffffffffffffffffffffffff1681565b60016020528060005260406000206000915054906101000a900460ff1681565b6003818154811061030257600080fd5b90600052602060002090600602016000915090508060000160009054906101000a900473ffffffffffffffffffffffffffffffffffffffff1690806001015490806002018054610351906110c9565b80601f016020809104026020016040519081016040528092919081815260200182805461037d906110c9565b80156103ca5780601f1061039f576101008083540402835291602001916103ca565b820191906000526020600020905b8154815290600101906020018083116103ad57829003601f168201915b5050505050908060030160009054906101000a900460ff16908060050154905085565b600160003373ffffffffffffffffffffffffffffffffffffffff1673ffffffffffffffffffffffffffffffffffffffff16815260200190815260200160002060009054906101000a900460ff16610479576040517f08c379a000000000000000000000000000000000000000000000000000000000815260040161047090611157565b60405180910390fd5b8060038054905081106104c1576040517f08c379a00000000000000000000000000000000000000000000000000000000081526004016104b8906111c3565b60405180910390fd5b81600381815481106104d6576104d56111e3565b5b906000526020600020906006020160040160003373ffffffffffffffffffffffffffffffffffffffff1673ffffffffffffffffffffffffffffffffffffffff16815260200190815260200160002060009054906101000a900460ff1615610572576040517f08c379a00000000000000000000000000000000000000000000000000000000081526004016105699061125e565b60405180910390fd5b8260038181548110610587576105866111e3565b5b906000526020600020906006020160030160009054906101000a900460ff16156105e6576040517f08c379a00000000000000000000000000000000000000000000000000000000081526004016105dd906112ca565b60405180910390fd5b6000600385815481106105fc576105fb6111e3565b5b9060005260206000209060060201905060018160040160003373ffffffffffffffffffffffffffffffffffffffff1673ffffffffffffffffffffffffffffffffffffffff16815260200190815260200160002060006101000a81548160ff021916908315150217905550600181600501600082825461067b9190611319565b92505081905550843373ffffffffffffffffffffffffffffffffffffffff167f5cbe105e36805f7820e291f799d5794ff948af2a5f664e580382defb6339004160405160405180910390a35050505050565b600160003373ffffffffffffffffffffffffffffffffffffffff1673ffffffffffffffffffffffffffffffffffffffff16815260200190815260200160002060009054906101000a900460ff16610759576040517f08c379a000000000000000000000000000000000000000000000000000000000815260040161075090611157565b60405180910390fd5b60006003805490509050600060036001816001815401808255809150500390600052602060002090600602019050848160000160006101000a81548173ffffffffffffffffffffffffffffffffffffffff021916908373ffffffffffffffffffffffffffffffffffffffff160217905550838160010181905550828160020190805190602001906107eb929190610bab565b508473ffffffffffffffffffffffffffffffffffffffff16823373ffffffffffffffffffffffffffffffffffffffff167fd5a05bf70715ad82a09a756320284a1b54c9ff74cd0f8cce6219e79b563fe59d878760405161084c92919061136f565b60405180910390a45050505050565b3373ffffffffffffffffffffffffffffffffffffffff167f90890809c654f11d6e72a28fa60149770a0d11ec6c92319d6ceb2bb0a4ea1a1534476040516108a3929190610c67565b60405180910390a2565b600160003373ffffffffffffffffffffffffffffffffffffffff1673ffffffffffffffffffffffffffffffffffffffff16815260200190815260200160002060009054906101000a900460ff16610939576040517f08c379a000000000000000000000000000000000000000000000000000000000815260040161093090611157565b60405180910390fd5b806003805490508110610981576040517f08c379a0000000000000000000000000000000000000000000000000000000008152600401610978906111c3565b60405180910390fd5b8160038181548110610996576109956111e3565b5b906000526020600020906006020160030160009054906101000a900460ff16156109f5576040517f08c379a00000000000000000000000000000000000000000000000000000000081526004016109ec906112ca565b60405180910390fd5b600060038481548110610a0b57610a0a6111e3565b5b9060005260206000209060060201905060025481600501541015610a64576040517f08c379a0000000000000000000000000000000000000000000000000000000008152600401610a5b906113eb565b60405180910390fd5b60018160030160006101000a81548160ff02191690831515021790555060008160000160009054906101000a900473ffffffffffffffffffffffffffffffffffffffff1673ffffffffffffffffffffffffffffffffffffffff16826001015483600201604051610ad491906114aa565b60006040518083038185875af1925050503d8060008114610b11576040519150601f19603f3d011682016040523d82523d6000602084013e610b16565b606091505b5050905080610b5a576040517f08c379a0000000000000000000000000000000000000000000000000000000008152600401610b519061150d565b60405180910390fd5b843373ffffffffffffffffffffffffffffffffffffffff167f5445f318f4f5fcfb66592e68e0cc5822aa15664039bd5f0ffde24c5a8142b1ac60405160405180910390a35050505050565b60025481565b828054610bb7906110c9565b90600052602060002090601f016020900481019282610bd95760008555610c20565b82601f10610bf257805160ff1916838001178555610c20565b82800160010185558215610c20579182015b82811115610c1f578251825591602001919060010190610c04565b5b509050610c2d9190610c31565b5090565b5b80821115610c4a576000816000905550600101610c32565b5090565b6000819050919050565b610c6181610c4e565b82525050565b6000604082019050610c7c6000830185610c58565b610c896020830184610c58565b9392505050565b6000604051905090565b600080fd5b600080fd5b610cad81610c4e565b8114610cb857600080fd5b50565b600081359050610cca81610ca4565b92915050565b600060208284031215610ce657610ce5610c9a565b5b6000610cf484828501610cbb565b91505092915050565b600073ffffffffffffffffffffffffffffffffffffffff82169050919050565b6000610d2882610cfd565b9050919050565b610d3881610d1d565b82525050565b6000602082019050610d536000830184610d2f565b92915050565b610d6281610d1d565b8114610d6d57600080fd5b50565b600081359050610d7f81610d59565b92915050565b600060208284031215610d9b57610d9a610c9a565b5b6000610da984828501610d70565b91505092915050565b60008115159050919050565b610dc781610db2565b82525050565b6000602082019050610de26000830184610dbe565b92915050565b600081519050919050565b600082825260208201905092915050565b60005b83811015610e22578082015181840152602081019050610e07565b83811115610e31576000848401525b50505050565b6000601f19601f8301169050919050565b6000610e5382610de8565b610e5d8185610df3565b9350610e6d818560208601610e04565b610e7681610e37565b840191505092915050565b600060a082019050610e966000830188610d2f565b610ea36020830187610c58565b8181036040830152610eb58186610e48565b9050610ec46060830185610dbe565b610ed16080830184610c58565b9695505050505050565b600080fd5b600080fd5b7f4e487b7100000000000000000000000000000000000000000000000000000000600052604160045260246000fd5b610f1d82610e37565b810181811067ffffffffffffffff82111715610f3c57610f3b610ee5565b5b80604052505050565b6000610f4f610c90565b9050610f5b8282610f14565b919050565b600067ffffffffffffffff821115610f7b57610f7a610ee5565b5b610f8482610e37565b9050602081019050919050565b82818337600083830152505050565b6000610fb3610fae84610f60565b610f45565b905082815260208101848484011115610fcf57610fce610ee0565b5b610fda848285610f91565b509392505050565b600082601f830112610ff757610ff6610edb565b5b8135611007848260208601610fa0565b91505092915050565b60008060006060848603121561102957611028610c9a565b5b600061103786828701610d70565b935050602061104886828701610cbb565b925050604084013567ffffffffffffffff81111561106957611068610c9f565b5b61107586828701610fe2565b9150509250925092565b60006020820190506110946000830184610c58565b92915050565b7f4e487b7100000000000000000000000000000000000000000000000000000000600052602260045260246000fd5b600060028204905060018216806110e157607f821691505b6020821081036110f4576110f361109a565b5b50919050565b600082825260208201905092915050565b7f4e6f7420612076616c6964206f776e6572000000000000000000000000000000600082015250565b60006111416011836110fa565b915061114c8261110b565b602082019050919050565b6000602082019050818103600083015261117081611134565b9050919050565b7f747820646f6573206e6f74206578697473000000000000000000000000000000600082015250565b60006111ad6011836110fa565b91506111b882611177565b602082019050919050565b600060208201905081810360008301526111dc816111a0565b9050919050565b7f4e487b7100000000000000000000000000000000000000000000000000000000600052603260045260246000fd5b7f747820616c726561647920636f6e6669726d6564000000000000000000000000600082015250565b60006112486014836110fa565b915061125382611212565b602082019050919050565b600060208201905081810360008301526112778161123b565b9050919050565b7f747820616c726561647920657865637574656400000000000000000000000000600082015250565b60006112b46013836110fa565b91506112bf8261127e565b602082019050919050565b600060208201905081810360008301526112e3816112a7565b9050919050565b7f4e487b7100000000000000000000000000000000000000000000000000000000600052601160045260246000fd5b600061132482610c4e565b915061132f83610c4e565b9250827fffffffffffffffffffffffffffffffffffffffffffffffffffffffffffffffff03821115611364576113636112ea565b5b828201905092915050565b60006040820190506113846000830185610c58565b81810360208301526113968184610e48565b90509392505050565b7f63616e6e6f742065786563757465207478000000000000000000000000000000600082015250565b60006113d56011836110fa565b91506113e08261139f565b602082019050919050565b60006020820190508181036000830152611404816113c8565b9050919050565b600081905092915050565b60008190508160005260206000209050919050565b60008154611438816110c9565b611442818661140b565b9450600182166000811461145d576001811461146e576114a1565b60ff198316865281860193506114a1565b61147785611416565b60005b838110156114995781548189015260018201915060208101905061147a565b838801955050505b50505092915050565b60006114b6828461142b565b915081905092915050565b7f7478206661696c65640000000000000000000000000000000000000000000000600082015250565b60006114f76009836110fa565b9150611502826114c1565b602082019050919050565b60006020820190508181036000830152611526816114ea565b905091905056fea2646970667358221220bb0538238fd07200b2422f0095366e972d18ba8bc2ec169f2beb9b98e079bd2564736f6c634300080d0033",
  "immutableReferences": {},
  "source": "// SPDX-License-Identifier: UNLICENSED\npragma solidity ^0.8.0;\n\ncontract MultiSignatureWallet {\n\n  event Deposit(address indexed sender, uint amount, uint balance);\n  event ConfirmTransaction(address indexed owner, uint indexed txIndex);\n  event RevokeConfirmation(address indexed owner, uint indexed txIndex);\n  event ExecuteTransaction(address indexed owner, uint indexed txIndex);\n    event SubmitTransaction(\n    address indexed owner,\n    uint indexed txIndex,\n    address indexed to,\n    uint value,\n    bytes data\n  );\n\n  address[] public owners;\n  mapping(address => bool) public isOwner;\n  uint public numberConfirmationsRequired;\n\n  struct Transaction {\n    address to;\n    uint value;\n    bytes data;\n    bool executed;\n    mapping(address => bool) isConfirmed;\n    uint numConfirmations;\n  }\n\n  Transaction[] public transactions;\n\n  constructor(address[] memory _owners, uint _numConfirmationsRequired) public {\n    require(_owners.length > 0, \"Owners Required\");\n    require(_numConfirmationsRequired > 0 && _numConfirmationsRequired <= _owners.length, \"invalid number of required confirmations\");\n\n    for (uint i = 0; i < _owners.length; i++) {\n      address owner = _owners[i];\n\n      require(owner != address(0), \"invalid owner\");\n      require(!isOwner[owner], \"owner not unique\");\n\n      isOwner[owner] = true;\n      owners.push(owner);\n\n    }\n  }\n\n  fallback() external payable {\n    emit Deposit(msg.sender, msg.value, address(this).balance);\n  }\n\n  receive() external payable {\n    emit Deposit(msg.sender, msg.value, address(this).balance);\n  }\n\n  // helper function to easily deposit in Remix IDE\n  function deposit() payable external {\n    emit Deposit(msg.sender, msg.value, address(this).balance);\n  }\n\n  modifier onlyOwner() {\n    require(isOwner[msg.sender], \"Not a valid owner\");\n    _;\n  }\n\n  modifier txExists(uint _txIndex) {\n    require(_txIndex < transactions.length, \"tx does not exits\");\n    _;\n  }\n\n  modifier notExecuted(uint _txIndex) {\n    require(!transactions[_txIndex].executed, \"tx already executed\");\n    _;\n  }\n\n  modifier notConfirmed(uint _txIndex) {\n    require(!transactions[_txIndex].isConfirmed[msg.sender], \"tx already confirmed\");\n    _;\n  }\n\n  function submitTransaction(address _to, uint _value, bytes memory _data) public onlyOwner {\n    uint txIndex = transactions.length;\n\n    Transaction storage newTx = transactions.push();\n    newTx.to = _to;\n    newTx.value = _value;\n    newTx.data = _data;\n\n    emit SubmitTransaction(msg.sender, txIndex, _to, _value, _data);\n  }\n\n  function confirmTransaction(uint _txIndex) public onlyOwner txExists(_txIndex) notConfirmed(_txIndex) notExecuted(_txIndex) {\n    Transaction storage transaction = transactions[_txIndex];\n\n    transaction.isConfirmed[msg.sender] = true;\n    transaction.numConfirmations += 1;\n\n    emit ConfirmTransaction(msg.sender, _txIndex);\n\n  }\n\n  function executeTransaction(uint _txIndex) public onlyOwner txExists(_txIndex) notExecuted(_txIndex) {\n\n    Transaction storage transaction = transactions[_txIndex];\n\n    require(transaction.numConfirmations >= numberConfirmationsRequired, \"cannot execute tx\");\n    transaction.executed = true;\n\n\n    (bool success, ) = transaction.to.call{value: transaction.value}(transaction.data);\n    require(success, \"tx failed\");\n\n    emit ExecuteTransaction(msg.sender, _txIndex);\n\n  }\n\n  // function revokeConfirmation() {}\n}\n",
  "sourcePath": "/Users/mattzamora/Desktop/Desktop/Code/projects/ethereum/multi-sig/contracts/MultiSigWallet.sol",
  "compiler": {
    "name": "solc",
    "version": "0.8.13+commit.abaa5c0e.Emscripten.clang"
  },
  "schemaVersion": "3.4.6",
  "updatedAt": "2022-04-01T02:40:55.865Z",
  "devdoc": {
    "kind": "dev",
    "methods": {},
    "version": 1
  },
  "userdoc": {
    "kind": "user",
    "methods": {},
    "version": 1
  }
}